:100000000C945D000C9485000C9485000C94850084
:100010000C9485000C9485000C9485000C9485004C
:100020000C9485000C9485000C9485000C9485003C
:100030000C9485000C9485000C9485000C9485002C
:100040000C947A040C9485000C9448040C942204BB
:100050000C9485000C9485000C9485000C9485000C
:100060000C9485000C9485000000000024002700FB
:100070002A0000000000250028002B0004040404CE
:100080000404040402020202020203030303030342
:10009000010204081020408001020408102001021F
:1000A00004081020000000080002010000030407FB
:1000B0000000000000000000C40411241FBECFEFA8
:1000C000D8E0DEBFCDBF11E0A0E0B1E0ECECF0E1A4
:1000D00002C005900D92A233B107D9F721E0A2E347
:1000E000B1E001C01D92A63FB207E1F710E0CDE5F7
:1000F000D0E004C02197FE010E945E08CC35D107F4
:10010000C9F70E940E050C9464080C940000AF928D
:10011000BF92CF92DF92EF92FF920F931F93CF93F4
:10012000DF936C017B018B01040F151FEB015E0156
:10013000AE18BF08C017D10759F06991D601ED91EB
:10014000FC910190F081E02DC6010995892B79F78A
:10015000C501DF91CF911F910F91FF90EF90DF903C
:10016000CF90BF90AF900895FC01538D448D252F03
:1001700030E0842F90E0821B930B541710F0CF9641
:10018000089501970895FC01918D828D981761F073
:10019000A28DAE0FBF2FB11D5D968C91928D9F5F8A
:1001A0009F73928F90E008958FEF9FEF0895FC0169
:1001B000918D828D981731F0828DE80FF11D858D1C
:1001C00090E008958FEF9FEF0895FC01918D228DAF
:1001D000892F90E0805C9F4F821B91098F73992734
:1001E000089581E491E00E94E50021E0892B09F463
:1001F00020E0822F089580E090E0892B29F00E9472
:10020000F10081110C9400000895FC01A48DA80F49
:10021000B92FB11DA35ABF4F2C91848D90E0019648
:100220008F739927848FA689B7892C93A089B18968
:100230008C91837080648C93938D848D981306C009
:100240000288F389E02D80818F7D80830895EF926D
:10025000FF920F931F93CF93DF93EC0181E0888F80
:100260009B8D8C8D98131AC0E889F989808185FF50
:1002700015C09FB7F894EE89FF896083E889F989F2
:1002800080818370806480839FBF81E090E0DF91F4
:10029000CF911F910F91FF90EF900895F62E0B8D47
:1002A00010E00F5F1F4F0F731127E02E8C8D8E1102
:1002B0000CC00FB607FCFACFE889F989808185FF69
:1002C000F5CFCE010E940501F1CFEB8DEC0FFD2F94
:1002D000F11DE35AFF4FF0829FB7F8940B8FEA8924
:1002E000FB8980818062CFCFCF93DF93EC01888D33
:1002F0008823B9F0AA89BB89E889F9898C9185FDA1
:1003000003C0808186FD0DC00FB607FCF7CF8C912E
:1003100085FFF2CF808185FFEDCFCE010E940501E0
:10032000E9CFDF91CF91089590E0FC01EC55FF4FAC
:100330002491FC01E057FF4F3491FC01E458FF4F3A
:10034000E491EE23C9F0222339F0233001F1A8F41F
:10035000213019F1223029F1F0E0EE0FFF1FEE58A5
:10036000FF4FA591B4918FB7F894EC91611126C01D
:1003700030953E233C938FBF08952730A9F0283055
:10038000C9F0243049F7809180008F7D03C08091AF
:1003900080008F7780938000DFCF84B58F7784BD16
:1003A000DBCF84B58F7DFBCF8091B0008F778093BA
:1003B000B000D2CF8091B0008F7DF9CF3E2BDACF45
:1003C000CF93DF9390E0FC01E057FF4F24918458D6
:1003D0009F4FFC0184918823D1F090E0880F991FF2
:1003E000FC01E859FF4FA591B491FC01EE58FF4F75
:1003F000C591D49161110EC09FB7F8948C91E22FF2
:10040000E0958E238C932881E223E8839FBFDF91C0
:10041000CF9108958FB7F894EC91E22BEC938FBFB6
:10042000F6CF3FB7F8948091370190913801A091B1
:100430003901B0913A0126B5A89B05C02F3F19F0AC
:100440000196A11DB11D3FBFBA2FA92F982F882754
:10045000BC01CD01620F711D811D911D42E0660F2F
:10046000771F881F991F4A95D1F70895089590E046
:1004700080E008958F929F92AF92BF92EF92FF9289
:100480000F931F93CF93DF93CDB7DEB7A1970FB62E
:10049000F894DEBF0FBECDBF7C01FA01CB0119A2DB
:1004A000223008F42AE08E010F5D1F4F822E912C1E
:1004B000B12CA12CBF01A50194010E94FC06F901F9
:1004C000CA016A3074F5605DD8016E938D01232BEB
:1004D000242B252B79F790E080E0109789F0FD011F
:1004E00001900020E9F73197AF014A1B5B0BD70160
:1004F000ED91FC910280F381E02DB801C7010995CF
:10050000A1960FB6F894DEBF0FBECDBFDF91CF919D
:100510001F910F91FF90EF90BF90AF909F908F90A1
:100520000895695CD1CFFC0101900020E9F7319773
:10053000AF01481B590BBC018EED91E00C94870074
:10054000CF92DF92EF92FF920F931F93CF93DF939F
:100550006B01770FEE08FF08F7FE1FC0EC01E88182
:10056000F9810190F081E02D6DE209958C0144271D
:100570005527BA014C195D096E097F092AE0CE01A1
:100580000E943A02800F911FDF91CF911F910F912E
:10059000FF90EF90DF90CF9008952AE0B701A60179
:1005A000DF91CF911F910F91FF90EF90DF90CF904F
:1005B0000C943A02CF93DF93EC0160E08E810E94AD
:1005C000940161E08E810E94940160E08E810E941E
:1005D00094018BE891E00197F1F7DF91CF910895B5
:1005E000CF92DF92EF92FF920F931F93CF93DF93FF
:1005F0006C017C0187E0E80EF11CD0E0C0E0062F22
:1006000010E0B8010C2E02C0759567950A94E2F7C8
:100610006170F70181917F010E9494012196C4309D
:10062000D10579F7C601DF91CF911F910F91FF900E
:10063000EF90DF90CF900C94DA02CF92DF92EF929E
:10064000FF920F931F93CF93DF93EC01F62E642F4D
:100650008C810E9494018D818F3F19F060E00E948F
:1006600094010F2D10E08F8584FF25C06E0187E077
:10067000C80ED11CF12CE12CB8010E2C02C07595CE
:1006800067950A94E2F76170F60181916F010E940B
:100690009401FFEFEF1AFF0A88E0E816F10461F712
:1006A000CE01DF91CF911F910F91FF90EF90DF90DE
:1006B000CF900C94DA02B80184E0759567958A951D
:1006C000E1F7CE010E94F0026F2DCE01DF91CF91B4
:1006D0001F910F91FF90EF90DF90CF900C94F0025C
:1006E00040E0682F8EED91E00C941D03CF93DF93D3
:1006F000823029F49091ED0198609093ED01809300
:10070000F1011092F20180E48093F30180E1809383
:10071000F40180E58093F50161E08091E2010E949F
:10072000E0018091E3018F3F19F061E00E94E00158
:1007300061E08091E4010E94E001CEEDD1E09E01F4
:100740002E5D31408091ED0184FD0BC084E090E08E
:1007500021962817390744F461E08E810E94E00158
:10076000EECF88E090E0F4CF8BE39DE00197F1F7C6
:1007700060E08091E2010E94940160E08091E401D8
:100780000E9494018091E3018F3F19F060E00E9484
:1007900094018091ED0184FD39C063E08EED91E01C
:1007A0000E94F002CBE4D6E4CE010197F1F763E0BA
:1007B0008EED91E00E94F0022197F1F763E08EED5B
:1007C00091E00E94F00283E592E00197F1F762E088
:1007D0008EED91E00E94F0028091ED0180620E9416
:1007E000700384E08093EE018CE00E94700381E04E
:1007F0000E9470038BE39FE10197F1F782E0809301
:10080000EF0186E0DF91CF910C94700380620E942B
:1008100070038BE496E40197F1F78091ED0180621B
:100820000E94700383E592E00197F1F78091ED015A
:1008300080620E947003D0CF41E00E941D0381E0DE
:1008400090E008951F920F920FB60F9211242F93EC
:100850003F934F935F936F937F938F939F93AF9348
:10086000BF93EF93FF9381E491E00E940501FF9114
:10087000EF91BF91AF919F918F917F916F915F9118
:100880004F913F912F910F900FBE0F901F90189591
:100890001F920F920FB60F9211242F938F939F9355
:1008A000EF93FF93E0915101F09152018081E0912B
:1008B0005701F091580182FD1BC0908180915A012F
:1008C0008F5F8F7320915B01821741F0E0915A0195
:1008D000F0E0EF5BFE4F958F80935A01FF91EF910F
:1008E0009F918F912F910F900FBE0F901F90189591
:1008F0008081F4CF1F920F920FB60F9211242F9385
:100900003F938F939F93AF93BF93809133019091C7
:100910003401A0913501B09136013091320123E0CC
:10092000230F2D3758F50196A11DB11D20933201DB
:100930008093330190933401A0933501B093360135
:100940008091370190913801A0913901B0913A011D
:100950000196A11DB11D8093370190933801A0939A
:100960003901B0933A01BF91AF919F918F913F911F
:100970002F910F900FBE0F901F90189526E8230F10
:100980000296A11DB11DD2CFE1E4F1E013821282E3
:1009900088EE93E0A0E0B0E084839583A683B783DC
:1009A00084E091E09183808385EC90E09587848753
:1009B00084EC90E09787868780EC90E0918B808B29
:1009C00081EC90E0938B828B82EC90E0958B848B12
:1009D00086EC90E0978B868B118E128E138E148E80
:1009E000EEEDF1E01382128286E191E09183808343
:1009F00082E084838FEF858383E0868384E087832E
:100A000085E0808786E0818787E082871386148669
:100A100015861686178681E00C947603789484B543
:100A2000826084BD84B5816084BD85B5826085BDEA
:100A300085B5816085BD80916E00816080936E0078
:100A4000109281008091810082608093810080916A
:100A5000810081608093810080918000816080931B
:100A600080008091B10084608093B1008091B000DB
:100A700081608093B00080917A00846080937A00D6
:100A800080917A00826080937A0080917A00816000
:100A900080937A0080917A00806880937A00109227
:100AA000C10061E08BE00E94E00161E088E00E940B
:100AB000E00160E08EE00E94E00182E00E947603A7
:100AC000E0915101F091520182E08083E0914D016B
:100AD000F0914E011082E0914F01F09150018FECA6
:100AE000808310925901E0915501F091560186E002
:100AF0008083E0915301F091540180818061808373
:100B0000E0915301F0915401808188608083E091ED
:100B10005301F0915401808180688083E0915301FA
:100B2000F091540180818F7D808398E2492E512C71
:100B3000612C712C2BE3222E2FE1322E00E010E0ED
:100B400020E420937C0080917A00806480937A0076
:100B500080917A0086FDFCCF8091780060917900C9
:100B6000762F682F072E000C880B990B0E946507C3
:100B700020E030E04AEF5EE30E94C9070E942D07A3
:100B80007093400160933F0181E491E00E94A002D4
:100B900080903F019090400184E1881691040CF010
:100BA000C7C010923E0110923D0161E08BE00E94AF
:100BB000E00160E08BE00E94940110923C011092F1
:100BC0003B0160E08BE00E94940180913F01909195
:100BD000400161E0CD970CF460E088E00E94940150
:100BE0008EE191E00E94930260913F01709140017B
:100BF0008EED91E00E94A00285E291E00E949302B6
:100C0000E091F101E23008F091C0E150F0E0E252F1
:100C1000FE4F848980680E94700388E291E00E9400
:100C2000930260913B0170913C018EED91E00E9436
:100C3000A0028FE291E00E9493020E9411024B01F8
:100C40005C0188ECC82ED12CE12CF12C0E94110201
:100C5000681979098A099B09683E734081059105E5
:100C6000A8F3F1E0CF1AD108E108F10828EE820ECE
:100C700023E0921EA11CB11CC114D104E104F104B3
:100C800029F781E00E947003C1010197F1F7011576
:100C9000110509F455CF0E94F100882309F450CFC3
:100CA0000E9400004DCFEFEAF0E08491833021F103
:100CB00048F48130B9F08230D1F0C038D1050CF061
:100CC0006FC07FCF873011F1883041F18430A9F7B0
:100CD00080918000806280938000D0928B00C092CF
:100CE0008A0073CF84B5806884BDC7BC6ECF84B5DD
:100CF000806284BDC8BC69CF809180008068809389
:100D00008000D0928900C09288005FCF8091B000AF
:100D100080688093B000C092B30057CF8091B0003C
:100D200080628093B000C092B4004FCFE1E06ECFFC
:100D3000FDE38F1691040CF048CF092C000CAA0893
:100D4000BB08C501B4010E94650720E030E040EC1B
:100D50005FE30E94C9070E942D076B01EB017093AE
:100D60003E0160933D01A5019401245131094109DF
:100D70005109A4E6B0E00E94F106A30192010E948D
:100D8000D20630933C0120933B0161E08BE00E944E
:100D9000E001209709F415CFCF3FD10509F083CFAB
:100DA00061E010CF052E97FB1EF400940E94E90627
:100DB00057FD07D00E94FC0607FC03D04EF40C94AC
:100DC000E90650954095309521953F4F4F4F5F4F25
:100DD000089590958095709561957F4F8F4F9F4FA7
:100DE00008950E941E07A59F900DB49F900DA49F8B
:100DF000800D911D11240895A1E21A2EAA1BBB1B80
:100E0000FD010DC0AA1FBB1FEE1FFF1FA217B307D6
:100E1000E407F50720F0A21BB30BE40BF50B661FEC
:100E2000771F881F991F1A9469F7609570958095B0
:100E300090959B01AC01BD01CF010895A29FB00127
:100E4000B39FC001A39F700D811D1124911DB29FFE
:100E5000700D811D1124911D08950E94340768941E
:100E6000B1110C94C30708950E94A80788F09F57FA
:100E700098F0B92F9927B751B0F0E1F0660F771FBE
:100E8000881F991F1AF0BA95C9F714C0B13091F0B4
:100E90000E94C207B1E008950C94C207672F782F13
:100EA0008827B85F39F0B93FCCF386957795679579
:100EB000B395D9F73EF490958095709561957F4FE5
:100EC0008F4F9F4F0895E89409C097FB3EF490958B
:100ED0008095709561957F4F8F4F9F4F9923A9F013
:100EE000F92F96E9BB279395F695879577956795A2
:100EF000B795F111F8CFFAF4BB0F11F460FF1BC0E6
:100F00006F5F7F4F8F4F9F4F16C0882311F096E978
:100F100011C0772321F09EE8872F762F05C0662326
:100F200071F096E8862F70E060E02AF09A95660FDF
:100F3000771F881FDAF7880F9695879597F9089598
:100F400057FD9058440F551F59F05F3F71F047957A
:100F5000880F97FB991F61F09F3F79F0879508955F
:100F6000121613061406551FF2CF4695F1DF08C07E
:100F7000161617061806991FF1CF8695710561059B
:100F800008940895E894BB2766277727CB0197F943
:100F900008950E94DC070C944D080E943F0838F029
:100FA0000E94460820F0952311F00C9436080C940A
:100FB0003C0811240C94C3070E94A00770F3959F6E
:100FC000C1F3950F50E0551F629FF001729FBB2740
:100FD000F00DB11D639FAA27F00DB11DAA1F649FDC
:100FE0006627B00DA11D661F829F2227B00DA11D8F
:100FF000621F739FB00DA11D621F839FA00D611D15
:10100000221F749F3327A00D611D231F849F600D35
:10101000211D822F762F6A2F11249F5750409AF05E
:10102000F1F088234AF0EE0FFF1FBB1F661F771FEA
:10103000881F91505040A9F79E3F510580F00C94B5
:1010400036080C94C3075F3FE4F3983ED4F38695CB
:1010500077956795B795F795E7959F5FC1F7FE2B55
:10106000880F911D9695879597F9089597F99F6731
:1010700080E870E060E008959FEF80EC0895002420
:101080000A941616170618060906089500240A94ED
:1010900012161306140605060895092E0394000C73
:1010A00011F4882352F0BB0F40F4BF2B11F460FF02
:1010B00004C06F5F7F4F8F4F9F4F0895EE0FFF1F4C
:0C10C0000590F491E02D0994F894FFCF06
:1010CC000000000027018700B4007401E500C30094
:1010DC00D700000000001C0487003702360254457C
:1010EC004D503A200043200046414E533A200025F3
:0210FC000000F2
:00000001FF
